{
  "_format": "hh-sol-artifact-1",
  "contractName": "ShrutiContract",
  "sourceName": "contracts/AbhishekContract.sol",
  "abi": [
    {
      "inputs": [
        {
          "internalType": "string",
          "name": "name",
          "type": "string"
        },
        {
          "internalType": "string",
          "name": "symbol",
          "type": "string"
        },
        {
          "internalType": "string",
          "name": "promptDescription",
          "type": "string"
        }
      ],
      "stateMutability": "nonpayable",
      "type": "constructor"
    },
    {
      "anonymous": false,
      "inputs": [
        {
          "indexed": true,
          "internalType": "address",
          "name": "owner",
          "type": "address"
        },
        {
          "indexed": true,
          "internalType": "address",
          "name": "approved",
          "type": "address"
        },
        {
          "indexed": true,
          "internalType": "uint256",
          "name": "tokenId",
          "type": "uint256"
        }
      ],
      "name": "Approval",
      "type": "event"
    },
    {
      "anonymous": false,
      "inputs": [
        {
          "indexed": true,
          "internalType": "address",
          "name": "owner",
          "type": "address"
        },
        {
          "indexed": true,
          "internalType": "address",
          "name": "operator",
          "type": "address"
        },
        {
          "indexed": false,
          "internalType": "bool",
          "name": "approved",
          "type": "bool"
        }
      ],
      "name": "ApprovalForAll",
      "type": "event"
    },
    {
      "anonymous": false,
      "inputs": [
        {
          "indexed": false,
          "internalType": "string",
          "name": "newPromptDescription",
          "type": "string"
        }
      ],
      "name": "PromptDescriptionUpdated",
      "type": "event"
    },
    {
      "anonymous": false,
      "inputs": [
        {
          "indexed": true,
          "internalType": "address",
          "name": "receiver",
          "type": "address"
        },
        {
          "indexed": true,
          "internalType": "uint256",
          "name": "tokenId",
          "type": "uint256"
        },
        {
          "indexed": false,
          "internalType": "string",
          "name": "tokenURI",
          "type": "string"
        }
      ],
      "name": "TokenMinted",
      "type": "event"
    },
    {
      "anonymous": false,
      "inputs": [
        {
          "indexed": true,
          "internalType": "uint256",
          "name": "tokenId",
          "type": "uint256"
        },
        {
          "indexed": false,
          "internalType": "string",
          "name": "tokenURI",
          "type": "string"
        }
      ],
      "name": "TokenURIUpdated",
      "type": "event"
    },
    {
      "anonymous": false,
      "inputs": [
        {
          "indexed": true,
          "internalType": "address",
          "name": "from",
          "type": "address"
        },
        {
          "indexed": true,
          "internalType": "address",
          "name": "to",
          "type": "address"
        },
        {
          "indexed": true,
          "internalType": "uint256",
          "name": "tokenId",
          "type": "uint256"
        }
      ],
      "name": "Transfer",
      "type": "event"
    },
    {
      "inputs": [
        {
          "internalType": "address",
          "name": "to",
          "type": "address"
        },
        {
          "internalType": "uint256",
          "name": "tokenId",
          "type": "uint256"
        }
      ],
      "name": "approve",
      "outputs": [],
      "stateMutability": "nonpayable",
      "type": "function"
    },
    {
      "inputs": [
        {
          "internalType": "address",
          "name": "owner",
          "type": "address"
        }
      ],
      "name": "balanceOf",
      "outputs": [
        {
          "internalType": "uint256",
          "name": "",
          "type": "uint256"
        }
      ],
      "stateMutability": "view",
      "type": "function"
    },
    {
      "inputs": [
        {
          "internalType": "uint256",
          "name": "tokenId",
          "type": "uint256"
        }
      ],
      "name": "getApproved",
      "outputs": [
        {
          "internalType": "address",
          "name": "",
          "type": "address"
        }
      ],
      "stateMutability": "view",
      "type": "function"
    },
    {
      "inputs": [],
      "name": "getPromptDescription",
      "outputs": [
        {
          "internalType": "string",
          "name": "",
          "type": "string"
        }
      ],
      "stateMutability": "view",
      "type": "function"
    },
    {
      "inputs": [
        {
          "internalType": "address",
          "name": "owner",
          "type": "address"
        },
        {
          "internalType": "address",
          "name": "operator",
          "type": "address"
        }
      ],
      "name": "isApprovedForAll",
      "outputs": [
        {
          "internalType": "bool",
          "name": "",
          "type": "bool"
        }
      ],
      "stateMutability": "view",
      "type": "function"
    },
    {
      "inputs": [
        {
          "internalType": "address",
          "name": "receiver",
          "type": "address"
        },
        {
          "internalType": "string",
          "name": "newTokenURI",
          "type": "string"
        }
      ],
      "name": "mint",
      "outputs": [],
      "stateMutability": "nonpayable",
      "type": "function"
    },
    {
      "inputs": [],
      "name": "name",
      "outputs": [
        {
          "internalType": "string",
          "name": "",
          "type": "string"
        }
      ],
      "stateMutability": "view",
      "type": "function"
    },
    {
      "inputs": [
        {
          "internalType": "uint256",
          "name": "tokenId",
          "type": "uint256"
        }
      ],
      "name": "ownerOf",
      "outputs": [
        {
          "internalType": "address",
          "name": "",
          "type": "address"
        }
      ],
      "stateMutability": "view",
      "type": "function"
    },
    {
      "inputs": [
        {
          "internalType": "address",
          "name": "from",
          "type": "address"
        },
        {
          "internalType": "address",
          "name": "to",
          "type": "address"
        },
        {
          "internalType": "uint256",
          "name": "tokenId",
          "type": "uint256"
        }
      ],
      "name": "safeTransferFrom",
      "outputs": [],
      "stateMutability": "nonpayable",
      "type": "function"
    },
    {
      "inputs": [
        {
          "internalType": "address",
          "name": "from",
          "type": "address"
        },
        {
          "internalType": "address",
          "name": "to",
          "type": "address"
        },
        {
          "internalType": "uint256",
          "name": "tokenId",
          "type": "uint256"
        },
        {
          "internalType": "bytes",
          "name": "data",
          "type": "bytes"
        }
      ],
      "name": "safeTransferFrom",
      "outputs": [],
      "stateMutability": "nonpayable",
      "type": "function"
    },
    {
      "inputs": [
        {
          "internalType": "address",
          "name": "operator",
          "type": "address"
        },
        {
          "internalType": "bool",
          "name": "approved",
          "type": "bool"
        }
      ],
      "name": "setApprovalForAll",
      "outputs": [],
      "stateMutability": "nonpayable",
      "type": "function"
    },
    {
      "inputs": [
        {
          "internalType": "bytes4",
          "name": "interfaceId",
          "type": "bytes4"
        }
      ],
      "name": "supportsInterface",
      "outputs": [
        {
          "internalType": "bool",
          "name": "",
          "type": "bool"
        }
      ],
      "stateMutability": "view",
      "type": "function"
    },
    {
      "inputs": [],
      "name": "symbol",
      "outputs": [
        {
          "internalType": "string",
          "name": "",
          "type": "string"
        }
      ],
      "stateMutability": "view",
      "type": "function"
    },
    {
      "inputs": [
        {
          "internalType": "uint256",
          "name": "tokenId",
          "type": "uint256"
        }
      ],
      "name": "tokenURI",
      "outputs": [
        {
          "internalType": "string",
          "name": "",
          "type": "string"
        }
      ],
      "stateMutability": "view",
      "type": "function"
    },
    {
      "inputs": [
        {
          "internalType": "address",
          "name": "from",
          "type": "address"
        },
        {
          "internalType": "address",
          "name": "to",
          "type": "address"
        },
        {
          "internalType": "uint256",
          "name": "tokenId",
          "type": "uint256"
        }
      ],
      "name": "transferFrom",
      "outputs": [],
      "stateMutability": "nonpayable",
      "type": "function"
    },
    {
      "inputs": [
        {
          "internalType": "string",
          "name": "newPromptDescription",
          "type": "string"
        }
      ],
      "name": "updatePromptDescription",
      "outputs": [],
      "stateMutability": "nonpayable",
      "type": "function"
    },
    {
      "inputs": [
        {
          "internalType": "uint256",
          "name": "tokenId",
          "type": "uint256"
        },
        {
          "internalType": "string",
          "name": "newTokenURI",
          "type": "string"
        }
      ],
      "name": "updateTokenURI",
      "outputs": [],
      "stateMutability": "nonpayable",
      "type": "function"
    }
  ],
  "bytecode": "0x60806040523480156200001157600080fd5b5060405162002cb838038062002cb88339818101604052810190620000379190620002e4565b828281600090805190602001906200005192919062000097565b5080600190805190602001906200006a92919062000097565b50505080600690805190602001906200008592919062000097565b50600160078190555050505062000402565b828054620000a590620003cc565b90600052602060002090601f016020900481019282620000c9576000855562000115565b82601f10620000e457805160ff191683800117855562000115565b8280016001018555821562000115579182015b8281111562000114578251825591602001919060010190620000f7565b5b50905062000124919062000128565b5090565b5b808211156200014357600081600090555060010162000129565b5090565b6000604051905090565b600080fd5b600080fd5b600080fd5b600080fd5b6000601f19601f8301169050919050565b7f4e487b7100000000000000000000000000000000000000000000000000000000600052604160045260246000fd5b620001b08262000165565b810181811067ffffffffffffffff82111715620001d257620001d162000176565b5b80604052505050565b6000620001e762000147565b9050620001f58282620001a5565b919050565b600067ffffffffffffffff82111562000218576200021762000176565b5b620002238262000165565b9050602081019050919050565b60005b838110156200025057808201518184015260208101905062000233565b8381111562000260576000848401525b50505050565b60006200027d6200027784620001fa565b620001db565b9050828152602081018484840111156200029c576200029b62000160565b5b620002a984828562000230565b509392505050565b600082601f830112620002c957620002c86200015b565b5b8151620002db84826020860162000266565b91505092915050565b6000806000606084860312156200030057620002ff62000151565b5b600084015167ffffffffffffffff81111562000321576200032062000156565b5b6200032f86828701620002b1565b935050602084015167ffffffffffffffff81111562000353576200035262000156565b5b6200036186828701620002b1565b925050604084015167ffffffffffffffff81111562000385576200038462000156565b5b6200039386828701620002b1565b9150509250925092565b7f4e487b7100000000000000000000000000000000000000000000000000000000600052602260045260246000fd5b60006002820490506001821680620003e557607f821691505b60208210811415620003fc57620003fb6200039d565b5b50919050565b6128a680620004126000396000f3fe608060405234801561001057600080fd5b506004361061010b5760003560e01c80636352211e116100a2578063a22cb46511610071578063a22cb465146102b6578063b88d4fde146102d2578063c87b56dd146102ee578063d0def5211461031e578063e985e9c51461033a5761010b565b80636352211e1461021a57806370a082311461024a57806395d89b411461027a57806399dbf570146102985761010b565b806318e97fd1116100de57806318e97fd1146101aa57806323b872dd146101c657806342842e0e146101e257806353eec73d146101fe5761010b565b806301ffc9a71461011057806306fdde0314610140578063081812fc1461015e578063095ea7b31461018e575b600080fd5b61012a600480360381019061012591906118e9565b61036a565b6040516101379190611931565b60405180910390f35b61014861044c565b60405161015591906119e5565b60405180910390f35b61017860048036038101906101739190611a3d565b6104de565b6040516101859190611aab565b60405180910390f35b6101a860048036038101906101a39190611af2565b610524565b005b6101c460048036038101906101bf9190611c67565b61063c565b005b6101e060048036038101906101db9190611cc3565b610682565b005b6101fc60048036038101906101f79190611cc3565b6106e2565b005b61021860048036038101906102139190611d16565b610702565b005b610234600480360381019061022f9190611a3d565b610753565b6040516102419190611aab565b60405180910390f35b610264600480360381019061025f9190611d5f565b6107da565b6040516102719190611d9b565b60405180910390f35b610282610892565b60405161028f91906119e5565b60405180910390f35b6102a0610924565b6040516102ad91906119e5565b60405180910390f35b6102d060048036038101906102cb9190611de2565b6109b6565b005b6102ec60048036038101906102e79190611ec3565b6109cc565b005b61030860048036038101906103039190611a3d565b610a2e565b60405161031591906119e5565b60405180910390f35b61033860048036038101906103339190611f46565b610b1b565b005b610354600480360381019061034f9190611fa2565b610ba2565b6040516103619190611931565b60405180910390f35b60007f80ac58cd000000000000000000000000000000000000000000000000000000007bffffffffffffffffffffffffffffffffffffffffffffffffffffffff1916827bffffffffffffffffffffffffffffffffffffffffffffffffffffffff1916148061043557507f5b5e139f000000000000000000000000000000000000000000000000000000007bffffffffffffffffffffffffffffffffffffffffffffffffffffffff1916827bffffffffffffffffffffffffffffffffffffffffffffffffffffffff1916145b80610445575061044482610c36565b5b9050919050565b60606000805461045b90612011565b80601f016020809104026020016040519081016040528092919081815260200182805461048790612011565b80156104d45780601f106104a9576101008083540402835291602001916104d4565b820191906000526020600020905b8154815290600101906020018083116104b757829003601f168201915b5050505050905090565b60006104e982610ca0565b6004600083815260200190815260200160002060009054906101000a900473ffffffffffffffffffffffffffffffffffffffff169050919050565b600061052f82610753565b90508073ffffffffffffffffffffffffffffffffffffffff168373ffffffffffffffffffffffffffffffffffffffff1614156105a0576040517f08c379a0000000000000000000000000000000000000000000000000000000008152600401610597906120b5565b60405180910390fd5b8073ffffffffffffffffffffffffffffffffffffffff166105bf610ceb565b73ffffffffffffffffffffffffffffffffffffffff1614806105ee57506105ed816105e8610ceb565b610ba2565b5b61062d576040517f08c379a000000000000000000000000000000000000000000000000000000000815260040161062490612147565b60405180910390fd5b6106378383610cf3565b505050565b6106468282610dac565b817f931f495b9a8e5d8e61946ea5d61e021f636cfe213a801f97589c18c152e408bd8260405161067691906119e5565b60405180910390a25050565b61069361068d610ceb565b82610e20565b6106d2576040517f08c379a00000000000000000000000000000000000000000000000000000000081526004016106c9906121d9565b60405180910390fd5b6106dd838383610eb5565b505050565b6106fd838383604051806020016040528060008152506109cc565b505050565b80600690805190602001906107189291906117da565b507fd3e10c334f5df8b5a4a78c2f65061898d33d636179544b96fe5d93bc96cd48458160405161074891906119e5565b60405180910390a150565b60008061075f836111af565b9050600073ffffffffffffffffffffffffffffffffffffffff168173ffffffffffffffffffffffffffffffffffffffff1614156107d1576040517f08c379a00000000000000000000000000000000000000000000000000000000081526004016107c890612245565b60405180910390fd5b80915050919050565b60008073ffffffffffffffffffffffffffffffffffffffff168273ffffffffffffffffffffffffffffffffffffffff16141561084b576040517f08c379a0000000000000000000000000000000000000000000000000000000008152600401610842906122d7565b60405180910390fd5b600360008373ffffffffffffffffffffffffffffffffffffffff1673ffffffffffffffffffffffffffffffffffffffff168152602001908152602001600020549050919050565b6060600180546108a190612011565b80601f01602080910402602001604051908101604052809291908181526020018280546108cd90612011565b801561091a5780601f106108ef5761010080835404028352916020019161091a565b820191906000526020600020905b8154815290600101906020018083116108fd57829003601f168201915b5050505050905090565b60606006805461093390612011565b80601f016020809104026020016040519081016040528092919081815260200182805461095f90612011565b80156109ac5780601f10610981576101008083540402835291602001916109ac565b820191906000526020600020905b81548152906001019060200180831161098f57829003601f168201915b5050505050905090565b6109c86109c1610ceb565b83836111ec565b5050565b6109dd6109d7610ceb565b83610e20565b610a1c576040517f08c379a0000000000000000000000000000000000000000000000000000000008152600401610a13906121d9565b60405180910390fd5b610a2884848484611359565b50505050565b6060610a39826113b5565b610a78576040517f08c379a0000000000000000000000000000000000000000000000000000000008152600401610a6f90612369565b60405180910390fd5b600860008381526020019081526020016000208054610a9690612011565b80601f0160208091040260200160405190810160405280929190818152602001828054610ac290612011565b8015610b0f5780601f10610ae457610100808354040283529160200191610b0f565b820191906000526020600020905b815481529060010190602001808311610af257829003601f168201915b50505050509050919050565b60006007549050610b2c83826113f6565b610b368183610dac565b808373ffffffffffffffffffffffffffffffffffffffff167fdf92894dc4675a7333caa5903b69cf5d8e8ec0d3f361c88207b6688e525703bb84604051610b7d91906119e5565b60405180910390a360076000815480929190610b98906123b8565b9190505550505050565b6000600560008473ffffffffffffffffffffffffffffffffffffffff1673ffffffffffffffffffffffffffffffffffffffff16815260200190815260200160002060008373ffffffffffffffffffffffffffffffffffffffff1673ffffffffffffffffffffffffffffffffffffffff16815260200190815260200160002060009054906101000a900460ff16905092915050565b60007f01ffc9a7000000000000000000000000000000000000000000000000000000007bffffffffffffffffffffffffffffffffffffffffffffffffffffffff1916827bffffffffffffffffffffffffffffffffffffffffffffffffffffffff1916149050919050565b610ca9816113b5565b610ce8576040517f08c379a0000000000000000000000000000000000000000000000000000000008152600401610cdf90612245565b60405180910390fd5b50565b600033905090565b816004600083815260200190815260200160002060006101000a81548173ffffffffffffffffffffffffffffffffffffffff021916908373ffffffffffffffffffffffffffffffffffffffff160217905550808273ffffffffffffffffffffffffffffffffffffffff16610d6683610753565b73ffffffffffffffffffffffffffffffffffffffff167f8c5be1e5ebec7d5bd14f71427d1e84f3dd0314c0f7b2291e5b200ac8c7c3b92560405160405180910390a45050565b610db5826113b5565b610df4576040517f08c379a0000000000000000000000000000000000000000000000000000000008152600401610deb90612473565b60405180910390fd5b80600860008481526020019081526020016000209080519060200190610e1b9291906117da565b505050565b600080610e2c83610753565b90508073ffffffffffffffffffffffffffffffffffffffff168473ffffffffffffffffffffffffffffffffffffffff161480610e6e5750610e6d8185610ba2565b5b80610eac57508373ffffffffffffffffffffffffffffffffffffffff16610e94846104de565b73ffffffffffffffffffffffffffffffffffffffff16145b91505092915050565b8273ffffffffffffffffffffffffffffffffffffffff16610ed582610753565b73ffffffffffffffffffffffffffffffffffffffff1614610f2b576040517f08c379a0000000000000000000000000000000000000000000000000000000008152600401610f2290612505565b60405180910390fd5b600073ffffffffffffffffffffffffffffffffffffffff168273ffffffffffffffffffffffffffffffffffffffff161415610f9b576040517f08c379a0000000000000000000000000000000000000000000000000000000008152600401610f9290612597565b60405180910390fd5b610fa88383836001611614565b8273ffffffffffffffffffffffffffffffffffffffff16610fc882610753565b73ffffffffffffffffffffffffffffffffffffffff161461101e576040517f08c379a000000000000000000000000000000000000000000000000000000000815260040161101590612505565b60405180910390fd5b6004600082815260200190815260200160002060006101000a81549073ffffffffffffffffffffffffffffffffffffffff02191690556001600360008573ffffffffffffffffffffffffffffffffffffffff1673ffffffffffffffffffffffffffffffffffffffff168152602001908152602001600020600082825403925050819055506001600360008473ffffffffffffffffffffffffffffffffffffffff1673ffffffffffffffffffffffffffffffffffffffff16815260200190815260200160002060008282540192505081905550816002600083815260200190815260200160002060006101000a81548173ffffffffffffffffffffffffffffffffffffffff021916908373ffffffffffffffffffffffffffffffffffffffff160217905550808273ffffffffffffffffffffffffffffffffffffffff168473ffffffffffffffffffffffffffffffffffffffff167fddf252ad1be2c89b69c2b068fc378daa952ba7f163c4a11628f55a4df523b3ef60405160405180910390a46111aa838383600161161a565b505050565b60006002600083815260200190815260200160002060009054906101000a900473ffffffffffffffffffffffffffffffffffffffff169050919050565b8173ffffffffffffffffffffffffffffffffffffffff168373ffffffffffffffffffffffffffffffffffffffff16141561125b576040517f08c379a000000000000000000000000000000000000000000000000000000000815260040161125290612603565b60405180910390fd5b80600560008573ffffffffffffffffffffffffffffffffffffffff1673ffffffffffffffffffffffffffffffffffffffff16815260200190815260200160002060008473ffffffffffffffffffffffffffffffffffffffff1673ffffffffffffffffffffffffffffffffffffffff16815260200190815260200160002060006101000a81548160ff0219169083151502179055508173ffffffffffffffffffffffffffffffffffffffff168373ffffffffffffffffffffffffffffffffffffffff167f17307eab39ab6107e8899845ad3d59bd9653f200f220920489ca2b5937696c318360405161134c9190611931565b60405180910390a3505050565b611364848484610eb5565b61137084848484611620565b6113af576040517f08c379a00000000000000000000000000000000000000000000000000000000081526004016113a690612695565b60405180910390fd5b50505050565b60008073ffffffffffffffffffffffffffffffffffffffff166113d7836111af565b73ffffffffffffffffffffffffffffffffffffffff1614159050919050565b600073ffffffffffffffffffffffffffffffffffffffff168273ffffffffffffffffffffffffffffffffffffffff161415611466576040517f08c379a000000000000000000000000000000000000000000000000000000000815260040161145d90612701565b60405180910390fd5b61146f816113b5565b156114af576040517f08c379a00000000000000000000000000000000000000000000000000000000081526004016114a69061276d565b60405180910390fd5b6114bd600083836001611614565b6114c6816113b5565b15611506576040517f08c379a00000000000000000000000000000000000000000000000000000000081526004016114fd9061276d565b60405180910390fd5b6001600360008473ffffffffffffffffffffffffffffffffffffffff1673ffffffffffffffffffffffffffffffffffffffff16815260200190815260200160002060008282540192505081905550816002600083815260200190815260200160002060006101000a81548173ffffffffffffffffffffffffffffffffffffffff021916908373ffffffffffffffffffffffffffffffffffffffff160217905550808273ffffffffffffffffffffffffffffffffffffffff16600073ffffffffffffffffffffffffffffffffffffffff167fddf252ad1be2c89b69c2b068fc378daa952ba7f163c4a11628f55a4df523b3ef60405160405180910390a461161060008383600161161a565b5050565b50505050565b50505050565b60006116418473ffffffffffffffffffffffffffffffffffffffff166117b7565b156117aa578373ffffffffffffffffffffffffffffffffffffffff1663150b7a0261166a610ceb565b8786866040518563ffffffff1660e01b815260040161168c94939291906127e2565b602060405180830381600087803b1580156116a657600080fd5b505af19250505080156116d757506040513d601f19601f820116820180604052508101906116d49190612843565b60015b61175a573d8060008114611707576040519150601f19603f3d011682016040523d82523d6000602084013e61170c565b606091505b50600081511415611752576040517f08c379a000000000000000000000000000000000000000000000000000000000815260040161174990612695565b60405180910390fd5b805181602001fd5b63150b7a0260e01b7bffffffffffffffffffffffffffffffffffffffffffffffffffffffff1916817bffffffffffffffffffffffffffffffffffffffffffffffffffffffff1916149150506117af565b600190505b949350505050565b6000808273ffffffffffffffffffffffffffffffffffffffff163b119050919050565b8280546117e690612011565b90600052602060002090601f016020900481019282611808576000855561184f565b82601f1061182157805160ff191683800117855561184f565b8280016001018555821561184f579182015b8281111561184e578251825591602001919060010190611833565b5b50905061185c9190611860565b5090565b5b80821115611879576000816000905550600101611861565b5090565b6000604051905090565b600080fd5b600080fd5b60007fffffffff0000000000000000000000000000000000000000000000000000000082169050919050565b6118c681611891565b81146118d157600080fd5b50565b6000813590506118e3816118bd565b92915050565b6000602082840312156118ff576118fe611887565b5b600061190d848285016118d4565b91505092915050565b60008115159050919050565b61192b81611916565b82525050565b60006020820190506119466000830184611922565b92915050565b600081519050919050565b600082825260208201905092915050565b60005b8381101561198657808201518184015260208101905061196b565b83811115611995576000848401525b50505050565b6000601f19601f8301169050919050565b60006119b78261194c565b6119c18185611957565b93506119d1818560208601611968565b6119da8161199b565b840191505092915050565b600060208201905081810360008301526119ff81846119ac565b905092915050565b6000819050919050565b611a1a81611a07565b8114611a2557600080fd5b50565b600081359050611a3781611a11565b92915050565b600060208284031215611a5357611a52611887565b5b6000611a6184828501611a28565b91505092915050565b600073ffffffffffffffffffffffffffffffffffffffff82169050919050565b6000611a9582611a6a565b9050919050565b611aa581611a8a565b82525050565b6000602082019050611ac06000830184611a9c565b92915050565b611acf81611a8a565b8114611ada57600080fd5b50565b600081359050611aec81611ac6565b92915050565b60008060408385031215611b0957611b08611887565b5b6000611b1785828601611add565b9250506020611b2885828601611a28565b9150509250929050565b600080fd5b600080fd5b7f4e487b7100000000000000000000000000000000000000000000000000000000600052604160045260246000fd5b611b748261199b565b810181811067ffffffffffffffff82111715611b9357611b92611b3c565b5b80604052505050565b6000611ba661187d565b9050611bb28282611b6b565b919050565b600067ffffffffffffffff821115611bd257611bd1611b3c565b5b611bdb8261199b565b9050602081019050919050565b82818337600083830152505050565b6000611c0a611c0584611bb7565b611b9c565b905082815260208101848484011115611c2657611c25611b37565b5b611c31848285611be8565b509392505050565b600082601f830112611c4e57611c4d611b32565b5b8135611c5e848260208601611bf7565b91505092915050565b60008060408385031215611c7e57611c7d611887565b5b6000611c8c85828601611a28565b925050602083013567ffffffffffffffff811115611cad57611cac61188c565b5b611cb985828601611c39565b9150509250929050565b600080600060608486031215611cdc57611cdb611887565b5b6000611cea86828701611add565b9350506020611cfb86828701611add565b9250506040611d0c86828701611a28565b9150509250925092565b600060208284031215611d2c57611d2b611887565b5b600082013567ffffffffffffffff811115611d4a57611d4961188c565b5b611d5684828501611c39565b91505092915050565b600060208284031215611d7557611d74611887565b5b6000611d8384828501611add565b91505092915050565b611d9581611a07565b82525050565b6000602082019050611db06000830184611d8c565b92915050565b611dbf81611916565b8114611dca57600080fd5b50565b600081359050611ddc81611db6565b92915050565b60008060408385031215611df957611df8611887565b5b6000611e0785828601611add565b9250506020611e1885828601611dcd565b9150509250929050565b600067ffffffffffffffff821115611e3d57611e3c611b3c565b5b611e468261199b565b9050602081019050919050565b6000611e66611e6184611e22565b611b9c565b905082815260208101848484011115611e8257611e81611b37565b5b611e8d848285611be8565b509392505050565b600082601f830112611eaa57611ea9611b32565b5b8135611eba848260208601611e53565b91505092915050565b60008060008060808587031215611edd57611edc611887565b5b6000611eeb87828801611add565b9450506020611efc87828801611add565b9350506040611f0d87828801611a28565b925050606085013567ffffffffffffffff811115611f2e57611f2d61188c565b5b611f3a87828801611e95565b91505092959194509250565b60008060408385031215611f5d57611f5c611887565b5b6000611f6b85828601611add565b925050602083013567ffffffffffffffff811115611f8c57611f8b61188c565b5b611f9885828601611c39565b9150509250929050565b60008060408385031215611fb957611fb8611887565b5b6000611fc785828601611add565b9250506020611fd885828601611add565b9150509250929050565b7f4e487b7100000000000000000000000000000000000000000000000000000000600052602260045260246000fd5b6000600282049050600182168061202957607f821691505b6020821081141561203d5761203c611fe2565b5b50919050565b7f4552433732313a20617070726f76616c20746f2063757272656e74206f776e6560008201527f7200000000000000000000000000000000000000000000000000000000000000602082015250565b600061209f602183611957565b91506120aa82612043565b604082019050919050565b600060208201905081810360008301526120ce81612092565b9050919050565b7f4552433732313a20617070726f76652063616c6c6572206973206e6f7420746f60008201527f6b656e206f776e6572206f7220617070726f76656420666f7220616c6c000000602082015250565b6000612131603d83611957565b915061213c826120d5565b604082019050919050565b6000602082019050818103600083015261216081612124565b9050919050565b7f4552433732313a2063616c6c6572206973206e6f7420746f6b656e206f776e6560008201527f72206f7220617070726f76656400000000000000000000000000000000000000602082015250565b60006121c3602d83611957565b91506121ce82612167565b604082019050919050565b600060208201905081810360008301526121f2816121b6565b9050919050565b7f4552433732313a20696e76616c696420746f6b656e2049440000000000000000600082015250565b600061222f601883611957565b915061223a826121f9565b602082019050919050565b6000602082019050818103600083015261225e81612222565b9050919050565b7f4552433732313a2061646472657373207a65726f206973206e6f74206120766160008201527f6c6964206f776e65720000000000000000000000000000000000000000000000602082015250565b60006122c1602983611957565b91506122cc82612265565b604082019050919050565b600060208201905081810360008301526122f0816122b4565b9050919050565b7f4552433732314d657461646174613a2055524920717565727920666f72206e6f60008201527f6e6578697374656e7420746f6b656e0000000000000000000000000000000000602082015250565b6000612353602f83611957565b915061235e826122f7565b604082019050919050565b6000602082019050818103600083015261238281612346565b9050919050565b7f4e487b7100000000000000000000000000000000000000000000000000000000600052601160045260246000fd5b60006123c382611a07565b91507fffffffffffffffffffffffffffffffffffffffffffffffffffffffffffffffff8214156123f6576123f5612389565b5b600182019050919050565b7f4552433732314d657461646174613a2055524920736574206f66206e6f6e657860008201527f697374656e7420746f6b656e0000000000000000000000000000000000000000602082015250565b600061245d602c83611957565b915061246882612401565b604082019050919050565b6000602082019050818103600083015261248c81612450565b9050919050565b7f4552433732313a207472616e736665722066726f6d20696e636f72726563742060008201527f6f776e6572000000000000000000000000000000000000000000000000000000602082015250565b60006124ef602583611957565b91506124fa82612493565b604082019050919050565b6000602082019050818103600083015261251e816124e2565b9050919050565b7f4552433732313a207472616e7366657220746f20746865207a65726f2061646460008201527f7265737300000000000000000000000000000000000000000000000000000000602082015250565b6000612581602483611957565b915061258c82612525565b604082019050919050565b600060208201905081810360008301526125b081612574565b9050919050565b7f4552433732313a20617070726f766520746f2063616c6c657200000000000000600082015250565b60006125ed601983611957565b91506125f8826125b7565b602082019050919050565b6000602082019050818103600083015261261c816125e0565b9050919050565b7f4552433732313a207472616e7366657220746f206e6f6e20455243373231526560008201527f63656976657220696d706c656d656e7465720000000000000000000000000000602082015250565b600061267f603283611957565b915061268a82612623565b604082019050919050565b600060208201905081810360008301526126ae81612672565b9050919050565b7f4552433732313a206d696e7420746f20746865207a65726f2061646472657373600082015250565b60006126eb602083611957565b91506126f6826126b5565b602082019050919050565b6000602082019050818103600083015261271a816126de565b9050919050565b7f4552433732313a20746f6b656e20616c7265616479206d696e74656400000000600082015250565b6000612757601c83611957565b915061276282612721565b602082019050919050565b600060208201905081810360008301526127868161274a565b9050919050565b600081519050919050565b600082825260208201905092915050565b60006127b48261278d565b6127be8185612798565b93506127ce818560208601611968565b6127d78161199b565b840191505092915050565b60006080820190506127f76000830187611a9c565b6128046020830186611a9c565b6128116040830185611d8c565b818103606083015261282381846127a9565b905095945050505050565b60008151905061283d816118bd565b92915050565b60006020828403121561285957612858611887565b5b60006128678482850161282e565b9150509291505056fea2646970667358221220af34c516979cd0c463b26da2266363e1a719d64624f8260a7bd2d85a5992a54e64736f6c63430008090033",
  "linkReferences": {},
  "deployedLinkReferences": {}
}